:100CB8004E677579656E2044756F6E67204B3232CA
:030CC8002D4400B8
:100BEF008F108E0F8D0E8C0DE47B19FAF9F8120908
:100BFF00AE8F108E0F8D0E8C0D780D74FF120A0DA7
:070C0F00EC4D4E4F70F32283
:100B6500120BAA7D017F01120C7D7BFF7A0C79B8EF
:100B7500120C3A120D027511008F12AC11AD12EC68
:100B85001208A57B6F7A127903783F1208031208C1
:100B9500DE8E118F127D027F01120C7DAF12AE1118
:050BA500120A8080CE61
:0F0D0200C2B0C2B2D2B220B3FDC2B1AFA0D2B163
:010D110022BF
:050D2A00200020200064
:100CDE00E4FDFCC3ED9FEC9E50070DBD00010C80A2
:010CEE00F213
:010CEF0022E2
:100C5D00E4FDFCC3ED9FEC9E5015E4FBFA0BBB00CD
:0F0C6D00010AEB647D4A70F50DBD00010C80E4B7
:010C7C002255
:030CCB00120C9C6C
:100CCE00D2827F037E00120CDEC2827F32020CDEE5
:100C9C00EF139284EFC313139285EF1313543F1386
:0C0CAC009286EF131313541F139287223B
:100CF000AB07EBC4540FFF120CCBAF03120C9C02DA
:020D00000CCE17
:0C0D12007F01120CF07F0A7E00020CDE54
:100BAA00E4FF120C9C7F147E00120C5DC280C2818D
:100BBA007F03120CCB7F057E00120C5D120CCE7FD8
:100BCA00647E00120CDE120CCE7F02120C9C120CF8
:100BDA00CE7F28120CF07F0C120CF07F06120CF05C
:050BEA007F01020CF088
:100C7D001FEFDD052480FA800324C0FA7FE87E0390
:0F0C8D00120CDEAF02120CF07F327E00020CDE82
:100C16002430FF120C32AE08AF097C007D0A12099F
:0C0C2600787C007D0A120978ED2430FF74
:080C3200D280120CF0C28022F6
:100C3A008B0A8A0B890CAB0AAA0BA90C12095FFF53
:100C4A006010120C327401250CF50CE4350BF50B0F
:030C5A0080E42211
:100A80008E088F09D3E5099409E5086480948050A5
:100A900004EF020B56D3E5099409E50864809480BD
:100AA0004031E5099464E508648094805025AE08DF
:100AB000AF097C007D0A120978EF2430FF120C3256
:100AC000AE08AF09120C277BFF7A0D792A120C3A77
:100AD000020B5CD3E5099463E508648094804029A7
:100AE000E50994E8E50864809483501DAE08AF09D9
:100AF0007C007D64120978EF120C16AE08AF097CF9
:100B0000007D0A120978ED804DD3E50994E7E508E8
:100B1000648094834046E5099410E508648094A7B6
:100B2000503AAE08AF097C037DE8120978EF243013
:100B3000FF120C32AE08AF097C007D641209787C8C
:100B4000007D0A120978ED120C16AE08AF097C0080
:100B50007D0A120978ED2430FF120C327BFF7A0DEA
:050B6000792C020C3AA3
:10080000020954EC5D046005E85904700302094ACA
:10081000120915580460F6EC4860F2EC7004FDFE15
:10082000FF22C860DB2481C85009C39860025006CB
:100830000209519850CAF582E9294B4A7005AB82EA
:1008400002094075F0007C1A7880C3EF9BEE9AEDA8
:1008500099400DC3EF9BFFEE9AFEED99FDE842F043
:10086000DC23ACF0D0E0FFD0E0FED0E0FDAB822096
:10087000E7101BEB60BAEC2CFCEF33FFEE33FEED20
:1008800033FD02092CE803F830E705C0F075F000ED
:10089000EF2FFFEE33FEED33FD40B830E7C280AA04
:1008A00075F020800E75F010800575F0087D007ED3
:1008B000007F003392D530D5031209FDEC33401090
:1008C000EF33FFEE33FEED33FDEC33FCD5F0ED22DC
:0E08D000E5F0247EA2D513CC92E7CDCEFF2218
:1008DE00EDD2E7CD33EC3392D524814006E4FFFE12
:1008EE00FDFC22FCE4CFCECDCC24E0501174FF8071
:1008FE00EDC3CC13CCCD13CDCE13CECF13CF04700E
:07090E00F030D5DE0209FD07
:10091500E9D2E7C933E833F892D5EDD2E7CD33EC28
:0709250033FC5002B2D522A1
:10092C00EC30E7100FBF000C0EBE00080DBD00042C
:10093C000BEB6014A2D5EB13FCED92E7FD2274FFD8
:10094C00FCFDFEFF22E480F8A2D574FF13FC7D8031
:03095C00E480EF45
:03000000020D1ED0
:0C0D1E00787FE4F6D8FD758112020B65A9
:10095F00BB010689828A83E0225002E722BBFE0296
:09096F00E32289828A83E49322C9
:10097800C2D5EC30E709B2D5E4C39DFDE49CFCEE9A
:1009880030E715B2D5E4C39FFFE49EFE120A2BC3DD
:10099800E49DFDE49CFC8003120A2B30D507C3E4D8
:0609A8009FFFE49EFE2209
:1009AE00E88FF0A4CC8BF0A42CFCE98EF0A42CFCE8
:1009BE008AF0EDA42CFCEA8EF0A4CDA8F08BF0A466
:1009CE002DCC3825F0FDE98FF0A42CCD35F0FCEBC5
:1009DE008EF0A4FEA9F0EB8FF0A4CFC5F02ECD398A
:0F09EE00FEE43CFCEAA42DCE35F0FDE43CFC22F7
:0E09FD00C3E49FFFE49EFEE49DFDE49CFC220B
:100A0B007401FF3395E0FEFDFC080808E6CF2FF6D6
:100A1B0018E6CE3EF618E6CD3DF618E6CC3CF622AF
:100A2B00BC000BBE0029EF8DF084FFADF022E4CCAF
:100A3B00F875F008EF2FFFEE33FEEC33FCEE9DEC78
:100A4B00984005FCEE9DFE0FD5F0E9E4CEFD22EDBE
:100A5B00F8F5F0EE8420D21CFEADF075F008EF2F08
:100A6B00FFED33FD4007985006D5F0F222C398FDF9
:050A7B000FD5F0EA2296
:00000001FF
